{
  "address": "0xc7C3c24677a018Be718E6cF56615A1Ade225Cb75",
  "abi": [
    {
      "inputs": [
        {
          "internalType": "address",
          "name": "_vault",
          "type": "address"
        },
        {
          "internalType": "address",
          "name": "_oracle",
          "type": "address"
        },
        {
          "internalType": "address",
          "name": "_liquidationEngine",
          "type": "address"
        }
      ],
      "stateMutability": "nonpayable",
      "type": "constructor"
    },
    {
      "inputs": [],
      "name": "InvalidLeverage",
      "type": "error"
    },
    {
      "inputs": [],
      "name": "NotOwner",
      "type": "error"
    },
    {
      "inputs": [],
      "name": "OnlyLiquidationEngine",
      "type": "error"
    },
    {
      "inputs": [],
      "name": "PositionNotOpen",
      "type": "error"
    },
    {
      "inputs": [
        {
          "internalType": "bytes32",
          "name": "handle",
          "type": "bytes32"
        },
        {
          "internalType": "address",
          "name": "sender",
          "type": "address"
        }
      ],
      "name": "SenderNotAllowedToUseHandle",
      "type": "error"
    },
    {
      "inputs": [],
      "name": "StaleOracle",
      "type": "error"
    },
    {
      "inputs": [],
      "name": "ZamaProtocolUnsupported",
      "type": "error"
    },
    {
      "anonymous": false,
      "inputs": [
        {
          "indexed": true,
          "internalType": "uint256",
          "name": "positionId",
          "type": "uint256"
        },
        {
          "indexed": true,
          "internalType": "address",
          "name": "owner",
          "type": "address"
        }
      ],
      "name": "PositionClosed",
      "type": "event"
    },
    {
      "anonymous": false,
      "inputs": [
        {
          "indexed": true,
          "internalType": "uint256",
          "name": "positionId",
          "type": "uint256"
        },
        {
          "indexed": true,
          "internalType": "address",
          "name": "owner",
          "type": "address"
        },
        {
          "indexed": false,
          "internalType": "bool",
          "name": "isLong",
          "type": "bool"
        },
        {
          "indexed": false,
          "internalType": "uint8",
          "name": "leverage",
          "type": "uint8"
        }
      ],
      "name": "PositionOpened",
      "type": "event"
    },
    {
      "inputs": [
        {
          "internalType": "uint256",
          "name": "positionId",
          "type": "uint256"
        }
      ],
      "name": "closePosition",
      "outputs": [],
      "stateMutability": "nonpayable",
      "type": "function"
    },
    {
      "inputs": [],
      "name": "confidentialProtocolId",
      "outputs": [
        {
          "internalType": "uint256",
          "name": "",
          "type": "uint256"
        }
      ],
      "stateMutability": "view",
      "type": "function"
    },
    {
      "inputs": [
        {
          "internalType": "uint256",
          "name": "positionId",
          "type": "uint256"
        }
      ],
      "name": "getPosition",
      "outputs": [
        {
          "internalType": "uint8",
          "name": "leverage",
          "type": "uint8"
        },
        {
          "internalType": "bool",
          "name": "isLong",
          "type": "bool"
        },
        {
          "internalType": "bool",
          "name": "isOpen",
          "type": "bool"
        },
        {
          "internalType": "address",
          "name": "owner",
          "type": "address"
        },
        {
          "internalType": "euint64",
          "name": "margin",
          "type": "bytes32"
        },
        {
          "internalType": "euint64",
          "name": "size",
          "type": "bytes32"
        },
        {
          "internalType": "euint64",
          "name": "entryPrice",
          "type": "bytes32"
        }
      ],
      "stateMutability": "view",
      "type": "function"
    },
    {
      "inputs": [
        {
          "internalType": "address",
          "name": "user",
          "type": "address"
        }
      ],
      "name": "getUserPositions",
      "outputs": [
        {
          "internalType": "uint256[]",
          "name": "",
          "type": "uint256[]"
        }
      ],
      "stateMutability": "view",
      "type": "function"
    },
    {
      "inputs": [
        {
          "internalType": "uint256",
          "name": "positionId",
          "type": "uint256"
        },
        {
          "internalType": "address",
          "name": "keeper",
          "type": "address"
        }
      ],
      "name": "liquidatePosition",
      "outputs": [],
      "stateMutability": "nonpayable",
      "type": "function"
    },
    {
      "inputs": [],
      "name": "liquidationEngine",
      "outputs": [
        {
          "internalType": "address",
          "name": "",
          "type": "address"
        }
      ],
      "stateMutability": "view",
      "type": "function"
    },
    {
      "inputs": [],
      "name": "nextPositionId",
      "outputs": [
        {
          "internalType": "uint256",
          "name": "",
          "type": "uint256"
        }
      ],
      "stateMutability": "view",
      "type": "function"
    },
    {
      "inputs": [
        {
          "internalType": "externalEuint64",
          "name": "encryptedMargin",
          "type": "bytes32"
        },
        {
          "internalType": "bytes",
          "name": "marginProof",
          "type": "bytes"
        },
        {
          "internalType": "externalEuint64",
          "name": "encryptedSize",
          "type": "bytes32"
        },
        {
          "internalType": "bytes",
          "name": "sizeProof",
          "type": "bytes"
        },
        {
          "internalType": "bool",
          "name": "isLong",
          "type": "bool"
        },
        {
          "internalType": "uint8",
          "name": "leverage",
          "type": "uint8"
        }
      ],
      "name": "openPosition",
      "outputs": [
        {
          "internalType": "uint256",
          "name": "positionId",
          "type": "uint256"
        }
      ],
      "stateMutability": "nonpayable",
      "type": "function"
    },
    {
      "inputs": [],
      "name": "oracle",
      "outputs": [
        {
          "internalType": "contract IChainlinkOracle",
          "name": "",
          "type": "address"
        }
      ],
      "stateMutability": "view",
      "type": "function"
    },
    {
      "inputs": [
        {
          "internalType": "uint256",
          "name": "",
          "type": "uint256"
        }
      ],
      "name": "positions",
      "outputs": [
        {
          "internalType": "euint64",
          "name": "margin",
          "type": "bytes32"
        },
        {
          "internalType": "euint64",
          "name": "size",
          "type": "bytes32"
        },
        {
          "internalType": "euint64",
          "name": "entryPrice",
          "type": "bytes32"
        },
        {
          "internalType": "uint8",
          "name": "leverage",
          "type": "uint8"
        },
        {
          "internalType": "bool",
          "name": "isLong",
          "type": "bool"
        },
        {
          "internalType": "bool",
          "name": "isOpen",
          "type": "bool"
        },
        {
          "internalType": "address",
          "name": "owner",
          "type": "address"
        }
      ],
      "stateMutability": "view",
      "type": "function"
    },
    {
      "inputs": [
        {
          "internalType": "address",
          "name": "",
          "type": "address"
        },
        {
          "internalType": "uint256",
          "name": "",
          "type": "uint256"
        }
      ],
      "name": "userPositions",
      "outputs": [
        {
          "internalType": "uint256",
          "name": "",
          "type": "uint256"
        }
      ],
      "stateMutability": "view",
      "type": "function"
    },
    {
      "inputs": [],
      "name": "vault",
      "outputs": [
        {
          "internalType": "contract PerpVault",
          "name": "",
          "type": "address"
        }
      ],
      "stateMutability": "view",
      "type": "function"
    }
  ],
  "transactionHash": "0x57fd69212b585a2242897741f249f3fd3196bcaea1ef6912682e5277b2c17eb4",
  "args": [
    "0x0951B4BD8fE822d3f4449A072584F441c4856f06",
    "0x694AA1769357215DE4FAC081bf1f309aDC325306",
    "0xb691c42b9cc6b28b89436E9Da1C767c52085c3F7"
  ],
  "numDeployments": 1,
  "solcInputHash": "b5d033354e4507b06dfcae60fa3020a7",
  "bytecode": "0x60e060405234801561000f575f5ffd5b50604051611b6d380380611b6d83398101604081905261002e916102c9565b6100e26100396100ff565b80517f9e7b61f58c47dc699ac88507c4f5bb9f121c03808c5676a8078fe583e464970080546001600160a01b03199081166001600160a01b039384161790915560208301517f9e7b61f58c47dc699ac88507c4f5bb9f121c03808c5676a8078fe583e46497018054831691841691909117905560408301517f9e7b61f58c47dc699ac88507c4f5bb9f121c03808c5676a8078fe583e46497028054909216921691909117905550565b6001600160a01b0392831660805290821660a0521660c052610309565b604080516060810182525f808252602082018190529181019190915246600103610198575060408051606080820183525f8083526020808401829052928401528251908101835273ca2e8f1f656cd25c01f05d0b243ab1ecd4a8ffb6815273d82385dada1ae3e969447f20a3164f6213100e75918101919091527377627828a55156b04ac0dc0eb30467f1a552bb039181019190915290565b4662aa36a703610217575060408051606080820183525f8083526020808401829052928401528251908101835273f0ffdc93b7e186bc2f8cb3daa75d86d1930a433d81527392c920834ec8941d2c77d188936e1f7a6f49c1279181019190915273be0e383937d564d7ff0bc3b46c51f0bf8d5c311a9181019190915290565b46617a6903610295575060408051606080820183525f808352602080840182905292840152825190810183527350157cffd6bbfa2dece204a89ec419c23ef5755d815273e3a9105a3a932253a70f126eb1e3b589c643dd249181019190915273901f8942346f7ab3a01f6d7613119bca447bb0309181019190915290565b6040516373cac13b60e01b815260040160405180910390fd5b80516001600160a01b03811681146102c4575f5ffd5b919050565b5f5f5f606084860312156102db575f5ffd5b6102e4846102ae565b92506102f2602085016102ae565b9150610300604085016102ae565b90509250925092565b60805160a05160c0516117fc6103715f395f818160e3015281816103ba01528181610797015281816107c601526107f501525f8181610158015261089d01525f81816102f90152818161060e0152818161065101528181610a4b0152610aa301526117fc5ff3fe608060405234801561000f575f5ffd5b50600436106100b1575f3560e01c8063899346c71161006e578063899346c71461018257806399fbab881461018a578063a126d60114610229578063dee740891461023c578063eb02c3011461024f578063fbfa77cf146102f4575f5ffd5b80632a6bc2dd146100b557806344bf3c72146100de5780635e1b4d991461011d5780635f036de11461013e5780637dc0d1d0146101535780638927b0301461017a575b5f5ffd5b6100c86100c3366004611445565b61031b565b6040516100d5919061145e565b60405180910390f35b6101057f000000000000000000000000000000000000000000000000000000000000000081565b6040516001600160a01b0390911681526020016100d5565b61013061012b3660046114a0565b610384565b6040519081526020016100d5565b61015161014c3660046114c8565b6103af565b005b6101057f000000000000000000000000000000000000000000000000000000000000000081565b61013061048c565b6101305f5481565b6101e56101983660046114f2565b600160208190525f9182526040909120805491810154600282015460039092015490919060ff8082169161010081048216916201000082041690630100000090046001600160a01b031687565b6040805197885260208801969096529486019390935260ff909116606085015215156080840152151560a08301526001600160a01b031660c082015260e0016100d5565b6101516102373660046114f2565b61049a565b61013061024a36600461155e565b610547565b6102ad61025d3660046114f2565b5f908152600160208190526040909120600381015481549282015460029092015460ff8083169561010084048216956201000085049092169463010000009094046001600160a01b031693919290565b6040805160ff90981688529515156020880152931515948601949094526001600160a01b039091166060850152608084015260a083019190915260c082015260e0016100d5565b6101057f000000000000000000000000000000000000000000000000000000000000000081565b6001600160a01b0381165f9081526002602090815260409182902080548351818402810184019094528084526060939283018282801561037857602002820191905f5260205f20905b815481526020019060010190808311610364575b50505050509050919050565b6002602052815f5260405f20818154811061039d575f80fd5b905f5260205f20015f91509150505481565b336001600160a01b037f000000000000000000000000000000000000000000000000000000000000000016146103f85760405163dfff4acd60e01b815260040160405180910390fd5b5f828152600160205260409020600381015462010000900460ff16610430576040516394e88a2160e01b815260040160405180910390fd5b5f610439610898565b9050610445848261095c565b600382015460405163010000009091046001600160a01b03169085907fcefaf961c5013063cf501ffd9f9382e9b9c4b15741ad032fe93d7e9c7c733b22905f90a350505050565b5f610495610b06565b905090565b5f818152600160205260409020600381015462010000900460ff166104d2576040516394e88a2160e01b815260040160405180910390fd5b6003810154630100000090046001600160a01b03163314610506576040516330cd747160e01b815260040160405180910390fd5b61051782610512610898565b61095c565b604051339083907fcefaf961c5013063cf501ffd9f9382e9b9c4b15741ad032fe93d7e9c7c733b22905f90a35050565b5f60ff8216158061055b5750603260ff8316115b1561057957604051633fe89cb960e11b815260040160405180910390fd5b5f610582610898565b90505f6105c48b8b8b8080601f0160208091040260200160405190810160405280939291908181526020018383808284375f92019190915250610b3a92505050565b90505f6106068989898080601f0160208091040260200160405190810160405280939291908181526020018383808284375f92019190915250610b3a92505050565b9050610632827f0000000000000000000000000000000000000000000000000000000000000000610bad565b50604051632af0d8ab60e01b8152336004820152602481018390525f907f00000000000000000000000000000000000000000000000000000000000000006001600160a01b031690632af0d8ab906044016020604051808303815f875af115801561069f573d5f5f3e3d5ffd5b505050506040513d601f19601f820116820180604052508101906106c3919061160a565b90505f6106cf85610bd0565b5f8054919250806106df83611635565b909155505f818152600160208190526040909120848155908101859055600281018390556003810180546201000060ff8c1661ffff19909216919091176101008d1515021762010000600160b81b031916336301000000021717905590965061074783610be6565b506107558160010154610be6565b506107638160020154610be6565b5080546107709033610c06565b5061077f816001015433610c06565b5061078e816002015433610c06565b5080546107bb907f0000000000000000000000000000000000000000000000000000000000000000610c06565b506107ea81600101547f0000000000000000000000000000000000000000000000000000000000000000610c06565b5061081981600201547f0000000000000000000000000000000000000000000000000000000000000000610c06565b50335f818152600260209081526040808320805460018101825590845291909220018990555188907f28b0f15b8df58516c37035a8b79a35f9350f218c04df629dd3ecc932ac9d566a9061087e908d908d90911515825260ff16602082015260400190565b60405180910390a350505050505098975050505050505050565b5f5f5f7f00000000000000000000000000000000000000000000000000000000000000006001600160a01b031663feaf968c6040518163ffffffff1660e01b815260040160a060405180830381865afa1580156108f7573d5f5f3e3d5ffd5b505050506040513d601f19601f8201168201806040525081019061091b9190611666565b50935050925050611c2063ffffffff16814261093791906116b4565b1115610956576040516388cce42960e01b815260040160405180910390fd5b50919050565b5f82815260016020526040812060038101805462ff0000191690559061098183610bd0565b90505f610992828460020154610c22565b90505f6109ba826109a7858760020154610c50565b6109b5876002015487610c50565b610c7e565b90505f6109e16109d986600101546109d485612710610cc7565b610ced565b612710610cc7565b60038601549091505f90610100900460ff16610a0557610a0084610d1b565b610a07565b835b90505f610a23610a1a84895f0154610d36565b88548590610c7e565b90505f610a4383610a378a5f015487610d64565b8a546109b59086610c50565b9050610a6f817f0000000000000000000000000000000000000000000000000000000000000000610bad565b50600388015460405163bd831c4f60e01b815263010000009091046001600160a01b039081166004830152602482018390527f0000000000000000000000000000000000000000000000000000000000000000169063bd831c4f906044015f604051808303815f87803b158015610ae4575f5ffd5b505af1158015610af6573d5f5f3e3d5ffd5b5050505050505050505050505050565b5f46600103610b155750600190565b4662aa36a703610b26575061271190565b46617a6903610b3557505f1990565b505f90565b5f81515f14610b5657610b4f83836005610d92565b9050610ba7565b825f819003610b7057610b685f610bd0565b915050610ba7565b610b7a8133610e8c565b610ba457604051630276b5d960e01b81526004810182905233602482015260440160405180910390fd5b90505b92915050565b5f82610bbf57610bbc5f610bd0565b92505b610bc98383610f18565b5090919050565b5f610ba78267ffffffffffffffff166005610f8c565b5f81610bf857610bf55f610bd0565b91505b610c02823061101b565b5090565b5f82610c1857610c155f610bd0565b92505b610bc9838361101b565b5f82610c3457610c315f610bd0565b92505b81610c4557610c425f610bd0565b91505b610ba483835f611061565b5f82610c6257610c5f5f610bd0565b92505b81610c7357610c705f610bd0565b91505b610ba483835f61110e565b5f83610c9057610c8d5f611171565b93505b82610ca157610c9e5f610bd0565b92505b81610cb257610caf5f610bd0565b91505b610cbd84848461118c565b90505b9392505050565b5f82610cd957610cd65f610bd0565b92505b610ba48367ffffffffffffffff841661122d565b5f82610cff57610cfc5f610bd0565b92505b81610d1057610d0d5f610bd0565b91505b610ba483835f611282565b5f81610d2d57610d2a5f611171565b91505b610ba7826112e5565b5f82610d4857610d455f610bd0565b92505b81610d5957610d565f610bd0565b91505b610ba483835f611364565b5f82610d7657610d735f610bd0565b92505b81610d8757610d845f610bd0565b91505b610ba483835f6113c7565b5f5160206117875f395f51905f525460405163045fc19560e11b81525f915f5160206117a75f395f51905f52916001600160a01b03909116906308bf832a90610de59088903390899089906004016116e7565b6020604051808303815f875af1158015610e01573d5f5f3e3d5ffd5b505050506040513d601f19601f82011682018060405250810190610e25919061160a565b8154604051630f8e573b60e21b8152600481018390523360248201529193506001600160a01b031690633e395cec906044015f604051808303815f87803b158015610e6e575f5ffd5b505af1158015610e80573d5f5f3e3d5ffd5b50505050509392505050565b5f805f5160206117a75f395f51905f5280546040516382027b6d60e01b8152600481018790526001600160a01b0386811660248301529293509116906382027b6d90604401602060405180830381865afa158015610eec573d5f5f3e3d5ffd5b505050506040513d601f19601f82011682018060405250810190610f109190611737565b949350505050565b5f5160206117a75f395f51905f528054604051630f8e573b60e21b8152600481018590526001600160a01b03848116602483015290911690633e395cec906044015b5f604051808303815f87803b158015610f71575f5ffd5b505af1158015610f83573d5f5f3e3d5ffd5b50505050505050565b5f5160206117875f395f51905f5254604051639cd07acb60e01b81525f915f5160206117a75f395f51905f52916001600160a01b0390911690639cd07acb90610fdb9087908790600401611752565b6020604051808303815f875af1158015610ff7573d5f5f3e3d5ffd5b505050506040513d601f19601f82011682018060405250810190610f10919061160a565b5f5160206117a75f395f51905f528054604051635ca4b5b160e11b8152600481018590526001600160a01b0384811660248301529091169063b9496b6290604401610f5a565b5f5f82156110745750600160f81b611077565b505f5b5f5160206117875f395f51905f5254604051631391547f60e01b81525f5160206117a75f395f51905f52916001600160a01b031690631391547f906110c490899089908790600401611766565b6020604051808303815f875af11580156110e0573d5f5f3e3d5ffd5b505050506040513d601f19601f82011682018060405250810190611104919061160a565b9695505050505050565b5f5f82156111215750600160f81b611124565b505f5b5f5160206117875f395f51905f52546040516303056db360e31b81525f5160206117a75f395f51905f52916001600160a01b03169063182b6d98906110c490899089908790600401611766565b5f610ba782611180575f611183565b60015b60ff165f610f8c565b5f5160206117875f395f51905f5254604051637702dcff60e01b81526004810185905260248101849052604481018390525f915f5160206117a75f395f51905f52916001600160a01b0390911690637702dcff906064015b6020604051808303815f875af1158015611200573d5f5f3e3d5ffd5b505050506040513d601f19601f82011682018060405250810190611224919061160a565b95945050505050565b5f5160206117875f395f51905f5254604051635a53accb60e01b81525f91600160f81b915f5160206117a75f395f51905f52916001600160a01b031690635a53accb906111e490889088908790600401611766565b5f5f82156112955750600160f81b611298565b505f5b5f5160206117875f395f51905f5254604051630afe14ad60e31b81525f5160206117a75f395f51905f52916001600160a01b0316906357f0a568906110c490899089908790600401611766565b5f805f5160206117a75f395f51905f526001810154604051630f51ccfb60e41b8152600481018690529192506001600160a01b03169063f51ccfb0906024016020604051808303815f875af1158015611340573d5f5f3e3d5ffd5b505050506040513d601f19601f82011682018060405250810190610cc0919061160a565b5f5f82156113775750600160f81b61137a565b505f5b5f5160206117875f395f51905f5254604051631d44e90160e21b81525f5160206117a75f395f51905f52916001600160a01b031690637513a404906110c490899089908790600401611766565b5f5f82156113da5750600160f81b6113dd565b505f5b5f5160206117875f395f51905f525460405163022f65e760e31b81525f5160206117a75f395f51905f52916001600160a01b03169063117b2f38906110c490899089908790600401611766565b80356001600160a01b0381168114611440575f5ffd5b919050565b5f60208284031215611455575f5ffd5b610ba48261142a565b602080825282518282018190525f918401906040840190835b81811015611495578351835260209384019390920191600101611477565b509095945050505050565b5f5f604083850312156114b1575f5ffd5b6114ba8361142a565b946020939093013593505050565b5f5f604083850312156114d9575f5ffd5b823591506114e96020840161142a565b90509250929050565b5f60208284031215611502575f5ffd5b5035919050565b5f5f83601f840112611519575f5ffd5b50813567ffffffffffffffff811115611530575f5ffd5b602083019150836020828501011115611547575f5ffd5b9250929050565b801515811461155b575f5ffd5b50565b5f5f5f5f5f5f5f5f60c0898b031215611575575f5ffd5b88359750602089013567ffffffffffffffff811115611592575f5ffd5b61159e8b828c01611509565b90985096505060408901359450606089013567ffffffffffffffff8111156115c4575f5ffd5b6115d08b828c01611509565b90955093505060808901356115e48161154e565b915060a089013560ff811681146115f9575f5ffd5b809150509295985092959890939650565b5f6020828403121561161a575f5ffd5b5051919050565b634e487b7160e01b5f52601160045260245ffd5b5f6001820161164657611646611621565b5060010190565b805169ffffffffffffffffffff81168114611440575f5ffd5b5f5f5f5f5f60a0868803121561167a575f5ffd5b6116838661164d565b602087015160408801516060890151929750909550935091506116a86080870161164d565b90509295509295909350565b81810381811115610ba757610ba7611621565b605481106116e357634e487b7160e01b5f52602160045260245ffd5b9052565b84815260018060a01b0384166020820152608060408201525f8351806080840152806020860160a085015e5f60a0828501015260a0601f19601f83011684010191505061122460608301846116c7565b5f60208284031215611747575f5ffd5b8151610cc08161154e565b82815260408101610cc060208301846116c7565b92835260208301919091526001600160f81b03191660408201526060019056fe9e7b61f58c47dc699ac88507c4f5bb9f121c03808c5676a8078fe583e46497019e7b61f58c47dc699ac88507c4f5bb9f121c03808c5676a8078fe583e4649700a264697066735822122030418c098f5d83d8f3ddc1f8e697ad6e99a1b3d26ec639806f4c260b627271ae64736f6c634300081b0033",
  "devdoc": {
    "details": "Core trading engine. Opens and closes encrypted ETH/USD positions.      Size, margin, and entry price are all encrypted. Leverage and direction are plaintext.",
    "kind": "dev",
    "methods": {
      "closePosition(uint256)": {
        "details": "Owner closes their own position. PnL settled, remaining margin returned."
      },
      "liquidatePosition(uint256,address)": {
        "details": "Called by LiquidationEngine after verifying position is underwater."
      },
      "openPosition(bytes32,bytes,bytes32,bytes,bool,uint8)": {
        "details": "Open a position. User provides encrypted margin + size, plaintext direction + leverage."
      }
    },
    "version": 1
  },
  "userdoc": {
    "errors": {
      "SenderNotAllowedToUseHandle(bytes32,address)": [
        {
          "notice": "Returned if the sender is not allowed to use the handle."
        }
      ],
      "ZamaProtocolUnsupported()": [
        {
          "notice": "Returned if the Zama protocol is not supported on the current chain"
        }
      ]
    },
    "kind": "user",
    "methods": {},
    "version": 1
  },
  "storageLayout": {
    "storage": [
      {
        "astId": 42696,
        "contract": "contracts/PerpEngine.sol:PerpEngine",
        "label": "nextPositionId",
        "offset": 0,
        "slot": "0",
        "type": "t_uint256"
      },
      {
        "astId": 42701,
        "contract": "contracts/PerpEngine.sol:PerpEngine",
        "label": "positions",
        "offset": 0,
        "slot": "1",
        "type": "t_mapping(t_uint256,t_struct(Position)42686_storage)"
      },
      {
        "astId": 42706,
        "contract": "contracts/PerpEngine.sol:PerpEngine",
        "label": "userPositions",
        "offset": 0,
        "slot": "2",
        "type": "t_mapping(t_address,t_array(t_uint256)dyn_storage)"
      }
    ],
    "types": {
      "t_address": {
        "encoding": "inplace",
        "label": "address",
        "numberOfBytes": "20"
      },
      "t_array(t_uint256)dyn_storage": {
        "base": "t_uint256",
        "encoding": "dynamic_array",
        "label": "uint256[]",
        "numberOfBytes": "32"
      },
      "t_bool": {
        "encoding": "inplace",
        "label": "bool",
        "numberOfBytes": "1"
      },
      "t_mapping(t_address,t_array(t_uint256)dyn_storage)": {
        "encoding": "mapping",
        "key": "t_address",
        "label": "mapping(address => uint256[])",
        "numberOfBytes": "32",
        "value": "t_array(t_uint256)dyn_storage"
      },
      "t_mapping(t_uint256,t_struct(Position)42686_storage)": {
        "encoding": "mapping",
        "key": "t_uint256",
        "label": "mapping(uint256 => struct PerpEngine.Position)",
        "numberOfBytes": "32",
        "value": "t_struct(Position)42686_storage"
      },
      "t_struct(Position)42686_storage": {
        "encoding": "inplace",
        "label": "struct PerpEngine.Position",
        "members": [
          {
            "astId": 42671,
            "contract": "contracts/PerpEngine.sol:PerpEngine",
            "label": "margin",
            "offset": 0,
            "slot": "0",
            "type": "t_userDefinedValueType(euint64)44059"
          },
          {
            "astId": 42674,
            "contract": "contracts/PerpEngine.sol:PerpEngine",
            "label": "size",
            "offset": 0,
            "slot": "1",
            "type": "t_userDefinedValueType(euint64)44059"
          },
          {
            "astId": 42677,
            "contract": "contracts/PerpEngine.sol:PerpEngine",
            "label": "entryPrice",
            "offset": 0,
            "slot": "2",
            "type": "t_userDefinedValueType(euint64)44059"
          },
          {
            "astId": 42679,
            "contract": "contracts/PerpEngine.sol:PerpEngine",
            "label": "leverage",
            "offset": 0,
            "slot": "3",
            "type": "t_uint8"
          },
          {
            "astId": 42681,
            "contract": "contracts/PerpEngine.sol:PerpEngine",
            "label": "isLong",
            "offset": 1,
            "slot": "3",
            "type": "t_bool"
          },
          {
            "astId": 42683,
            "contract": "contracts/PerpEngine.sol:PerpEngine",
            "label": "isOpen",
            "offset": 2,
            "slot": "3",
            "type": "t_bool"
          },
          {
            "astId": 42685,
            "contract": "contracts/PerpEngine.sol:PerpEngine",
            "label": "owner",
            "offset": 3,
            "slot": "3",
            "type": "t_address"
          }
        ],
        "numberOfBytes": "128"
      },
      "t_uint256": {
        "encoding": "inplace",
        "label": "uint256",
        "numberOfBytes": "32"
      },
      "t_uint8": {
        "encoding": "inplace",
        "label": "uint8",
        "numberOfBytes": "1"
      },
      "t_userDefinedValueType(euint64)44059": {
        "encoding": "inplace",
        "label": "euint64",
        "numberOfBytes": "32"
      }
    }
  }
}